{
  "contractName": "MultiSignatureWallet",
  "abi": [
    {
      "inputs": [
        {
          "internalType": "address[]",
          "name": "_owners",
          "type": "address[]"
        },
        {
          "internalType": "uint256",
          "name": "_required",
          "type": "uint256"
        }
      ],
      "stateMutability": "nonpayable",
      "type": "constructor"
    },
    {
      "anonymous": false,
      "inputs": [
        {
          "indexed": true,
          "internalType": "address",
          "name": "sender",
          "type": "address"
        },
        {
          "indexed": true,
          "internalType": "uint256",
          "name": "transactionId",
          "type": "uint256"
        }
      ],
      "name": "Confirmation",
      "type": "event"
    },
    {
      "anonymous": false,
      "inputs": [
        {
          "indexed": true,
          "internalType": "address",
          "name": "sender",
          "type": "address"
        },
        {
          "indexed": false,
          "internalType": "uint256",
          "name": "value",
          "type": "uint256"
        }
      ],
      "name": "Deposit",
      "type": "event"
    },
    {
      "anonymous": false,
      "inputs": [
        {
          "indexed": true,
          "internalType": "uint256",
          "name": "transactionId",
          "type": "uint256"
        }
      ],
      "name": "Execution",
      "type": "event"
    },
    {
      "anonymous": false,
      "inputs": [
        {
          "indexed": true,
          "internalType": "uint256",
          "name": "transactionId",
          "type": "uint256"
        }
      ],
      "name": "ExecutionFailure",
      "type": "event"
    },
    {
      "anonymous": false,
      "inputs": [
        {
          "indexed": true,
          "internalType": "uint256",
          "name": "transactionId",
          "type": "uint256"
        }
      ],
      "name": "Submission",
      "type": "event"
    },
    {
      "stateMutability": "payable",
      "type": "fallback",
      "payable": true
    },
    {
      "inputs": [
        {
          "internalType": "uint256",
          "name": "",
          "type": "uint256"
        },
        {
          "internalType": "address",
          "name": "",
          "type": "address"
        }
      ],
      "name": "confirmations",
      "outputs": [
        {
          "internalType": "bool",
          "name": "",
          "type": "bool"
        }
      ],
      "stateMutability": "view",
      "type": "function",
      "constant": true
    },
    {
      "inputs": [
        {
          "internalType": "address",
          "name": "",
          "type": "address"
        }
      ],
      "name": "isOwner",
      "outputs": [
        {
          "internalType": "bool",
          "name": "",
          "type": "bool"
        }
      ],
      "stateMutability": "view",
      "type": "function",
      "constant": true
    },
    {
      "inputs": [
        {
          "internalType": "uint256",
          "name": "",
          "type": "uint256"
        }
      ],
      "name": "owners",
      "outputs": [
        {
          "internalType": "address",
          "name": "",
          "type": "address"
        }
      ],
      "stateMutability": "view",
      "type": "function",
      "constant": true
    },
    {
      "inputs": [],
      "name": "required",
      "outputs": [
        {
          "internalType": "uint256",
          "name": "",
          "type": "uint256"
        }
      ],
      "stateMutability": "view",
      "type": "function",
      "constant": true
    },
    {
      "inputs": [],
      "name": "transactionCount",
      "outputs": [
        {
          "internalType": "uint256",
          "name": "",
          "type": "uint256"
        }
      ],
      "stateMutability": "view",
      "type": "function",
      "constant": true
    },
    {
      "inputs": [
        {
          "internalType": "uint256",
          "name": "",
          "type": "uint256"
        }
      ],
      "name": "transactions",
      "outputs": [
        {
          "internalType": "bool",
          "name": "executed",
          "type": "bool"
        },
        {
          "internalType": "address",
          "name": "destination",
          "type": "address"
        },
        {
          "internalType": "uint256",
          "name": "value",
          "type": "uint256"
        },
        {
          "internalType": "bytes",
          "name": "data",
          "type": "bytes"
        }
      ],
      "stateMutability": "view",
      "type": "function",
      "constant": true
    },
    {
      "inputs": [
        {
          "internalType": "address",
          "name": "destination",
          "type": "address"
        },
        {
          "internalType": "uint256",
          "name": "value",
          "type": "uint256"
        },
        {
          "internalType": "bytes",
          "name": "data",
          "type": "bytes"
        }
      ],
      "name": "submitTransaction",
      "outputs": [
        {
          "internalType": "uint256",
          "name": "transactionId",
          "type": "uint256"
        }
      ],
      "stateMutability": "nonpayable",
      "type": "function"
    },
    {
      "inputs": [
        {
          "internalType": "uint256",
          "name": "transactionId",
          "type": "uint256"
        }
      ],
      "name": "confirmTransaction",
      "outputs": [],
      "stateMutability": "nonpayable",
      "type": "function"
    },
    {
      "inputs": [
        {
          "internalType": "uint256",
          "name": "transactionId",
          "type": "uint256"
        }
      ],
      "name": "revokeConfirmation",
      "outputs": [],
      "stateMutability": "nonpayable",
      "type": "function"
    },
    {
      "inputs": [
        {
          "internalType": "uint256",
          "name": "transactionId",
          "type": "uint256"
        }
      ],
      "name": "executeTransaction",
      "outputs": [],
      "stateMutability": "nonpayable",
      "type": "function"
    }
  ],
  "bytecode": "0x60806040523480156200001157600080fd5b50604051620016fc380380620016fc8339818101604052810190620000379190620003fd565b8151818181106200004757600080fd5b600082116200005557600080fd5b600081116200006357600080fd5b60005b8451811015620000fb576001600260008784815181106200008c576200008b62000463565b5b602002602001015173ffffffffffffffffffffffffffffffffffffffff1673ffffffffffffffffffffffffffffffffffffffff16815260200190815260200160002060006101000a81548160ff0219169083151502179055508080620000f290620004c1565b91505062000066565b5083600090805190602001906200011492919062000126565b5082600181905550505050506200050e565b828054828255906000526020600020908101928215620001a2579160200282015b82811115620001a15782518260006101000a81548173ffffffffffffffffffffffffffffffffffffffff021916908373ffffffffffffffffffffffffffffffffffffffff1602179055509160200191906001019062000147565b5b509050620001b19190620001b5565b5090565b5b80821115620001d0576000816000905550600101620001b6565b5090565b6000604051905090565b600080fd5b600080fd5b600080fd5b6000601f19601f8301169050919050565b7f4e487b7100000000000000000000000000000000000000000000000000000000600052604160045260246000fd5b6200023882620001ed565b810181811067ffffffffffffffff821117156200025a5762000259620001fe565b5b80604052505050565b60006200026f620001d4565b90506200027d82826200022d565b919050565b600067ffffffffffffffff821115620002a0576200029f620001fe565b5b602082029050602081019050919050565b600080fd5b600073ffffffffffffffffffffffffffffffffffffffff82169050919050565b6000620002e382620002b6565b9050919050565b620002f581620002d6565b81146200030157600080fd5b50565b6000815190506200031581620002ea565b92915050565b6000620003326200032c8462000282565b62000263565b90508083825260208201905060208402830185811115620003585762000357620002b1565b5b835b8181101562000385578062000370888262000304565b8452602084019350506020810190506200035a565b5050509392505050565b600082601f830112620003a757620003a6620001e8565b5b8151620003b98482602086016200031b565b91505092915050565b6000819050919050565b620003d781620003c2565b8114620003e357600080fd5b50565b600081519050620003f781620003cc565b92915050565b60008060408385031215620004175762000416620001de565b5b600083015167ffffffffffffffff811115620004385762000437620001e3565b5b62000446858286016200038f565b92505060206200045985828601620003e6565b9150509250929050565b7f4e487b7100000000000000000000000000000000000000000000000000000000600052603260045260246000fd5b7f4e487b7100000000000000000000000000000000000000000000000000000000600052601160045260246000fd5b6000620004ce82620003c2565b91507fffffffffffffffffffffffffffffffffffffffffffffffffffffffffffffffff820362000503576200050262000492565b5b600182019050919050565b6111de806200051e6000396000f3fe6080604052600436106100955760003560e01c8063b77bf60011610059578063b77bf60014610210578063c01a8c841461023b578063c642747414610264578063dc8452cd146102a1578063ee22610b146102cc57610096565b8063025e7c27146100f057806320ea8d861461012d5780632f54bf6e146101565780633411c81c146101935780639ace38c2146101d057610096565b5b60003411156100ee573373ffffffffffffffffffffffffffffffffffffffff167fe1fffcc4923d04b559f4d29a8bfc6cda04eb5b0d3c460751c2402c5c5cc9109c346040516100e59190610b5a565b60405180910390a25b005b3480156100fc57600080fd5b5061011760048036038101906101129190610bb5565b6102f5565b6040516101249190610c23565b60405180910390f35b34801561013957600080fd5b50610154600480360381019061014f9190610bb5565b610334565b005b34801561016257600080fd5b5061017d60048036038101906101789190610c6a565b610337565b60405161018a9190610cb2565b60405180910390f35b34801561019f57600080fd5b506101ba60048036038101906101b59190610ccd565b610357565b6040516101c79190610cb2565b60405180910390f35b3480156101dc57600080fd5b506101f760048036038101906101f29190610bb5565b610386565b6040516102079493929190610da6565b60405180910390f35b34801561021c57600080fd5b5061022561046b565b6040516102329190610b5a565b60405180910390f35b34801561024757600080fd5b50610262600480360381019061025d9190610bb5565b610471565b005b34801561027057600080fd5b5061028b60048036038101906102869190610f27565b61065d565b6040516102989190610b5a565b60405180910390f35b3480156102ad57600080fd5b506102b66106d2565b6040516102c39190610b5a565b60405180910390f35b3480156102d857600080fd5b506102f360048036038101906102ee9190610bb5565b6106d8565b005b6000818154811061030557600080fd5b906000526020600020016000915054906101000a900473ffffffffffffffffffffffffffffffffffffffff1681565b50565b60026020528060005260406000206000915054906101000a900460ff1681565b60056020528160005260406000206020528060005260406000206000915091509054906101000a900460ff1681565b60046020528060005260406000206000915090508060000160009054906101000a900460ff16908060000160019054906101000a900473ffffffffffffffffffffffffffffffffffffffff16908060010154908060020180546103e890610fc5565b80601f016020809104026020016040519081016040528092919081815260200182805461041490610fc5565b80156104615780601f1061043657610100808354040283529160200191610461565b820191906000526020600020905b81548152906001019060200180831161044457829003601f168201915b5050505050905084565b60035481565b600260003373ffffffffffffffffffffffffffffffffffffffff1673ffffffffffffffffffffffffffffffffffffffff16815260200190815260200160002060009054906101000a900460ff166104c757600080fd5b600073ffffffffffffffffffffffffffffffffffffffff166004600083815260200190815260200160002060000160019054906101000a900473ffffffffffffffffffffffffffffffffffffffff1673ffffffffffffffffffffffffffffffffffffffff160361053657600080fd5b600015156005600083815260200190815260200160002060003373ffffffffffffffffffffffffffffffffffffffff1673ffffffffffffffffffffffffffffffffffffffff16815260200190815260200160002060009054906101000a900460ff161515146105a457600080fd5b60016005600083815260200190815260200160002060003373ffffffffffffffffffffffffffffffffffffffff1673ffffffffffffffffffffffffffffffffffffffff16815260200190815260200160002060006101000a81548160ff021916908315150217905550803373ffffffffffffffffffffffffffffffffffffffff167f4a504a94899432a9846e1aa406dceb1bcfd538bb839071d49d1e5e23f5be30ef60405160405180910390a361065a816106d8565b50565b6000600260003373ffffffffffffffffffffffffffffffffffffffff1673ffffffffffffffffffffffffffffffffffffffff16815260200190815260200160002060009054906101000a900460ff166106b557600080fd5b6106c0848484610873565b90506106cb81610471565b9392505050565b60015481565b600115156004600083815260200190815260200160002060000160009054906101000a900460ff1615150361070c57600080fd5b610715816109a8565b1561087057600060046000838152602001908152602001600020905060018160000160006101000a81548160ff0219169083151502179055506000808260000160019054906101000a900473ffffffffffffffffffffffffffffffffffffffff1673ffffffffffffffffffffffffffffffffffffffff168360010154846002016040516107a29190611095565b60006040518083038185875af1925050503d80600081146107df576040519150601f19603f3d011682016040523d82523d6000602084013e6107e4565b606091505b5091509150811561082157837f33e13ecb54c3076d8e8bb8c2881800a4d972b792045ffae98fdf46df365fed7560405160405180910390a261086c565b837f526441bb6c1aba3c9a4a6ca1d6545da9c2333c8c48343ef398eb858d72b7923660405160405180910390a260008360000160006101000a81548160ff0219169083151502179055505b5050505b50565b6000600354905060405180608001604052806000151581526020018573ffffffffffffffffffffffffffffffffffffffff1681526020018481526020018381525060046000600354815260200190815260200160002060008201518160000160006101000a81548160ff02191690831515021790555060208201518160000160016101000a81548173ffffffffffffffffffffffffffffffffffffffff021916908373ffffffffffffffffffffffffffffffffffffffff160217905550604082015181600101556060820151816002019080519060200190610956929190610a9e565b5090505060016003600082825461096d91906110db565b92505081905550807fc0ba8fe4b176c1714197d43b9cc6bcf797a4a7461c5fe8d0ef6e184ae7601e5160405160405180910390a29392505050565b6000806000905060005b600080549050811015610a96576005600085815260200190815260200160002060008083815481106109e7576109e6611131565b5b9060005260206000200160009054906101000a900473ffffffffffffffffffffffffffffffffffffffff1673ffffffffffffffffffffffffffffffffffffffff1673ffffffffffffffffffffffffffffffffffffffff16815260200190815260200160002060009054906101000a900460ff1615610a6f57600182610a6c91906110db565b91505b6001548203610a8357600192505050610a99565b8080610a8e90611160565b9150506109b2565b50505b919050565b828054610aaa90610fc5565b90600052602060002090601f016020900481019282610acc5760008555610b13565b82601f10610ae557805160ff1916838001178555610b13565b82800160010185558215610b13579182015b82811115610b12578251825591602001919060010190610af7565b5b509050610b209190610b24565b5090565b5b80821115610b3d576000816000905550600101610b25565b5090565b6000819050919050565b610b5481610b41565b82525050565b6000602082019050610b6f6000830184610b4b565b92915050565b6000604051905090565b600080fd5b600080fd5b610b9281610b41565b8114610b9d57600080fd5b50565b600081359050610baf81610b89565b92915050565b600060208284031215610bcb57610bca610b7f565b5b6000610bd984828501610ba0565b91505092915050565b600073ffffffffffffffffffffffffffffffffffffffff82169050919050565b6000610c0d82610be2565b9050919050565b610c1d81610c02565b82525050565b6000602082019050610c386000830184610c14565b92915050565b610c4781610c02565b8114610c5257600080fd5b50565b600081359050610c6481610c3e565b92915050565b600060208284031215610c8057610c7f610b7f565b5b6000610c8e84828501610c55565b91505092915050565b60008115159050919050565b610cac81610c97565b82525050565b6000602082019050610cc76000830184610ca3565b92915050565b60008060408385031215610ce457610ce3610b7f565b5b6000610cf285828601610ba0565b9250506020610d0385828601610c55565b9150509250929050565b600081519050919050565b600082825260208201905092915050565b60005b83811015610d47578082015181840152602081019050610d2c565b83811115610d56576000848401525b50505050565b6000601f19601f8301169050919050565b6000610d7882610d0d565b610d828185610d18565b9350610d92818560208601610d29565b610d9b81610d5c565b840191505092915050565b6000608082019050610dbb6000830187610ca3565b610dc86020830186610c14565b610dd56040830185610b4b565b8181036060830152610de78184610d6d565b905095945050505050565b600080fd5b600080fd5b7f4e487b7100000000000000000000000000000000000000000000000000000000600052604160045260246000fd5b610e3482610d5c565b810181811067ffffffffffffffff82111715610e5357610e52610dfc565b5b80604052505050565b6000610e66610b75565b9050610e728282610e2b565b919050565b600067ffffffffffffffff821115610e9257610e91610dfc565b5b610e9b82610d5c565b9050602081019050919050565b82818337600083830152505050565b6000610eca610ec584610e77565b610e5c565b905082815260208101848484011115610ee657610ee5610df7565b5b610ef1848285610ea8565b509392505050565b600082601f830112610f0e57610f0d610df2565b5b8135610f1e848260208601610eb7565b91505092915050565b600080600060608486031215610f4057610f3f610b7f565b5b6000610f4e86828701610c55565b9350506020610f5f86828701610ba0565b925050604084013567ffffffffffffffff811115610f8057610f7f610b84565b5b610f8c86828701610ef9565b9150509250925092565b7f4e487b7100000000000000000000000000000000000000000000000000000000600052602260045260246000fd5b60006002820490506001821680610fdd57607f821691505b602082108103610ff057610fef610f96565b5b50919050565b600081905092915050565b60008190508160005260206000209050919050565b6000815461102381610fc5565b61102d8186610ff6565b9450600182166000811461104857600181146110595761108c565b60ff1983168652818601935061108c565b61106285611001565b60005b8381101561108457815481890152600182019150602081019050611065565b838801955050505b50505092915050565b60006110a18284611016565b915081905092915050565b7f4e487b7100000000000000000000000000000000000000000000000000000000600052601160045260246000fd5b60006110e682610b41565b91506110f183610b41565b9250827fffffffffffffffffffffffffffffffffffffffffffffffffffffffffffffffff03821115611126576111256110ac565b5b828201905092915050565b7f4e487b7100000000000000000000000000000000000000000000000000000000600052603260045260246000fd5b600061116b82610b41565b91507fffffffffffffffffffffffffffffffffffffffffffffffffffffffffffffffff820361119d5761119c6110ac565b5b60018201905091905056fea264697066735822122026c2ee6e097f4337e1260659f04256679681eb4cfa0923842bfd401d4b7e268064736f6c634300080d0033",
  "immutableReferences": {},
  "source": "// SPDX-License-Identifier: MIT\npragma solidity ^0.8.0;\n\ncontract MultiSignatureWallet {\n\n    address[] public owners;\n    uint public required;\n    mapping (address => bool) public isOwner;\n    uint public transactionCount;\n    mapping (uint => Transaction) public transactions;\n    mapping (uint => mapping (address => bool)) public confirmations;\n\n    event Submission(uint indexed transactionId);\n    event Confirmation(address indexed sender, uint indexed transactionId);\n    event Execution(uint indexed transactionId);\n    event ExecutionFailure(uint indexed transactionId);\n\n    struct Transaction {\n      bool executed;\n      address destination;\n      uint value;\n      bytes data;\n    }\n\n    event Deposit(address indexed sender, uint value);\n\n    modifier checkRequirements(uint ownerCount, uint _required) {\n        require(_required < ownerCount);\n        require(ownerCount > 0);\n        require(_required > 0);\n        _;\n    }\n\n    /// @dev Fallback function allows to deposit ether.\n    fallback()\n    \texternal\n        payable\n    {\n        if (msg.value > 0) {\n            emit Deposit(msg.sender, msg.value);\n        }\n    }\n\n    /*\n     * Public functions\n     */\n    /// @dev Contract constructor sets initial owners and required number of confirmations.\n    /// @param _owners List of initial owners.\n    /// @param _required Number of required confirmations.\n    constructor(address[] memory _owners, uint _required) checkRequirements(_owners.length, _required) {\n        for (uint256 i = 0; i < _owners.length; i++) {\n            isOwner[_owners[i]] = true;\n        }\n        owners = _owners;\n        required = _required;\n    }\n\n    /// @dev Allows an owner to submit and confirm a transaction.\n    /// @param destination Transaction target address.\n    /// @param value Transaction ether value.\n    /// @param data Transaction data payload.\n    function submitTransaction(address destination, uint value, bytes memory data) public returns (uint transactionId) {\n        require(isOwner[msg.sender]);\n        transactionId = addTransaction(destination, value, data);\n        confirmTransaction(transactionId);\n    }\n\n    /// @dev Allows an owner to confirm a transaction.\n    /// @param transactionId Transaction ID.\n    function confirmTransaction(uint transactionId) public {\n        require(isOwner[msg.sender]);\n        require(transactions[transactionId].destination != address(0));\n        require(confirmations[transactionId][msg.sender] == false);\n        confirmations[transactionId][msg.sender] = true;\n        emit Confirmation(msg.sender, transactionId);\n        executeTransaction(transactionId);\n    }\n\n    /// @dev Allows an owner to revoke a confirmation for a transaction.\n    /// @param transactionId Transaction ID.\n    function revokeConfirmation(uint transactionId) public {}\n\n    /// @dev Allows anyone to execute a confirmed transaction.\n    /// @param transactionId Transaction ID.\n    function executeTransaction(uint transactionId) public {\n        require(transactions[transactionId].executed != true);\n        if (isConfirmed(transactionId)) {\n            Transaction storage t = transactions[transactionId];\n            t.executed = true;\n            (bool success, bytes memory returnedData) = t.destination.call{value: t.value}(t.data);\n            if (success) {\n                emit Execution(transactionId);\n            } else {\n                emit ExecutionFailure(transactionId);\n                t.executed = false;\n            }\n        }\n    }\n\n\t\t/*\n\t\t * (Possible) Helper Functions\n\t\t */\n    /// @dev Returns the confirmation status of a transaction.\n    /// @param transactionId Transaction ID.\n    /// @return Confirmation status.\n    function isConfirmed(uint transactionId) internal view returns (bool) {\n        uint count = 0;\n        for (uint256 i = 0; i < owners.length; i++) {\n            if (confirmations[transactionId][owners[i]]) {\n                count += 1;\n            }\n            if (count == required) {\n                return true;\n            }\n        }\n    }\n\n    /// @dev Adds a new transaction to the transaction mapping, if transaction does not exist yet.\n    /// @param destination Transaction target address.\n    /// @param value Transaction ether value.\n    /// @param data Transaction data payload.\n    function addTransaction(address destination, uint value, bytes memory data) internal returns (uint transactionId) {\n        transactionId = transactionCount;\n        transactions[transactionCount] = Transaction({\n            destination: destination, \n            value: value,\n            data: data,\n            executed: false\n        });\n        transactionCount += 1;\n        emit Submission(transactionId);\n    }\n}",
  "sourcePath": "/Users/johannbich/projects/academy/multisig/contracts/MultiSignatureWallet.sol",
  "compiler": {
    "name": "solc",
    "version": "0.8.13+commit.abaa5c0e.Emscripten.clang"
  },
  "schemaVersion": "3.4.7",
  "updatedAt": "2022-04-22T16:06:19.676Z",
  "networkType": "ethereum",
  "devdoc": {
    "kind": "dev",
    "methods": {
      "confirmTransaction(uint256)": {
        "details": "Allows an owner to confirm a transaction.",
        "params": {
          "transactionId": "Transaction ID."
        }
      },
      "constructor": {
        "details": "Contract constructor sets initial owners and required number of confirmations.",
        "params": {
          "_owners": "List of initial owners.",
          "_required": "Number of required confirmations."
        }
      },
      "executeTransaction(uint256)": {
        "details": "Allows anyone to execute a confirmed transaction.",
        "params": {
          "transactionId": "Transaction ID."
        }
      },
      "revokeConfirmation(uint256)": {
        "details": "Allows an owner to revoke a confirmation for a transaction.",
        "params": {
          "transactionId": "Transaction ID."
        }
      },
      "submitTransaction(address,uint256,bytes)": {
        "details": "Allows an owner to submit and confirm a transaction.",
        "params": {
          "data": "Transaction data payload.",
          "destination": "Transaction target address.",
          "value": "Transaction ether value."
        }
      }
    },
    "version": 1
  },
  "userdoc": {
    "kind": "user",
    "methods": {},
    "version": 1
  }
}